{
  "address": "0x844E47e13644CBc19f17b136eBd04A842eE64147",
  "abi": [
    {
      "anonymous": false,
      "inputs": [
        {
          "indexed": true,
          "internalType": "address",
          "name": "previousOwner",
          "type": "address"
        },
        {
          "indexed": true,
          "internalType": "address",
          "name": "newOwner",
          "type": "address"
        }
      ],
      "name": "OwnershipTransferred",
      "type": "event"
    },
    {
      "inputs": [],
      "name": "getAllCount",
      "outputs": [
        {
          "internalType": "uint256",
          "name": "",
          "type": "uint256"
        }
      ],
      "stateMutability": "view",
      "type": "function"
    },
    {
      "inputs": [],
      "name": "getAllListedNFTs",
      "outputs": [
        {
          "components": [
            {
              "internalType": "uint256",
              "name": "listedOn",
              "type": "uint256"
            },
            {
              "internalType": "address",
              "name": "tknAddress",
              "type": "address"
            },
            {
              "internalType": "uint256",
              "name": "tknId",
              "type": "uint256"
            },
            {
              "internalType": "string",
              "name": "compliance",
              "type": "string"
            },
            {
              "internalType": "uint256",
              "name": "dailyFee",
              "type": "uint256"
            },
            {
              "internalType": "enum ReturnCondition",
              "name": "returnCondition",
              "type": "uint8"
            },
            {
              "internalType": "uint256",
              "name": "expiry",
              "type": "uint256"
            },
            {
              "components": [
                {
                  "internalType": "uint256",
                  "name": "amount",
                  "type": "uint256"
                },
                {
                  "internalType": "string",
                  "name": "currency",
                  "type": "string"
                }
              ],
              "internalType": "struct NFTCollateral",
              "name": "collateral",
              "type": "tuple"
            }
          ],
          "internalType": "struct NFTListing[]",
          "name": "",
          "type": "tuple[]"
        }
      ],
      "stateMutability": "view",
      "type": "function"
    },
    {
      "inputs": [
        {
          "internalType": "address",
          "name": "lender",
          "type": "address"
        }
      ],
      "name": "getListedNFTs",
      "outputs": [
        {
          "components": [
            {
              "internalType": "uint256",
              "name": "listedOn",
              "type": "uint256"
            },
            {
              "internalType": "address",
              "name": "tknAddress",
              "type": "address"
            },
            {
              "internalType": "uint256",
              "name": "tknId",
              "type": "uint256"
            },
            {
              "internalType": "string",
              "name": "compliance",
              "type": "string"
            },
            {
              "internalType": "uint256",
              "name": "dailyFee",
              "type": "uint256"
            },
            {
              "internalType": "enum ReturnCondition",
              "name": "returnCondition",
              "type": "uint8"
            },
            {
              "internalType": "uint256",
              "name": "expiry",
              "type": "uint256"
            },
            {
              "components": [
                {
                  "internalType": "uint256",
                  "name": "amount",
                  "type": "uint256"
                },
                {
                  "internalType": "string",
                  "name": "currency",
                  "type": "string"
                }
              ],
              "internalType": "struct NFTCollateral",
              "name": "collateral",
              "type": "tuple"
            }
          ],
          "internalType": "struct NFTListing[]",
          "name": "",
          "type": "tuple[]"
        }
      ],
      "stateMutability": "view",
      "type": "function"
    },
    {
      "inputs": [
        {
          "internalType": "uint256",
          "name": "",
          "type": "uint256"
        }
      ],
      "name": "lenders",
      "outputs": [
        {
          "internalType": "address",
          "name": "",
          "type": "address"
        }
      ],
      "stateMutability": "view",
      "type": "function"
    },
    {
      "inputs": [
        {
          "internalType": "uint256",
          "name": "listedOn",
          "type": "uint256"
        },
        {
          "internalType": "address",
          "name": "tknAddress",
          "type": "address"
        },
        {
          "internalType": "uint256",
          "name": "tknId",
          "type": "uint256"
        },
        {
          "internalType": "string",
          "name": "complianceCheck",
          "type": "string"
        },
        {
          "internalType": "uint256",
          "name": "dailyFee",
          "type": "uint256"
        },
        {
          "internalType": "enum ReturnCondition",
          "name": "returnCondition",
          "type": "uint8"
        },
        {
          "internalType": "uint256",
          "name": "expiry",
          "type": "uint256"
        },
        {
          "components": [
            {
              "internalType": "uint256",
              "name": "amount",
              "type": "uint256"
            },
            {
              "internalType": "string",
              "name": "currency",
              "type": "string"
            }
          ],
          "internalType": "struct NFTCollateral",
          "name": "collateral",
          "type": "tuple"
        }
      ],
      "name": "listNFT",
      "outputs": [],
      "stateMutability": "nonpayable",
      "type": "function"
    },
    {
      "inputs": [
        {
          "internalType": "address",
          "name": "",
          "type": "address"
        },
        {
          "internalType": "uint256",
          "name": "",
          "type": "uint256"
        }
      ],
      "name": "listedNFT",
      "outputs": [
        {
          "internalType": "uint256",
          "name": "listedOn",
          "type": "uint256"
        },
        {
          "internalType": "address",
          "name": "tknAddress",
          "type": "address"
        },
        {
          "internalType": "uint256",
          "name": "tknId",
          "type": "uint256"
        },
        {
          "internalType": "string",
          "name": "compliance",
          "type": "string"
        },
        {
          "internalType": "uint256",
          "name": "dailyFee",
          "type": "uint256"
        },
        {
          "internalType": "enum ReturnCondition",
          "name": "returnCondition",
          "type": "uint8"
        },
        {
          "internalType": "uint256",
          "name": "expiry",
          "type": "uint256"
        },
        {
          "components": [
            {
              "internalType": "uint256",
              "name": "amount",
              "type": "uint256"
            },
            {
              "internalType": "string",
              "name": "currency",
              "type": "string"
            }
          ],
          "internalType": "struct NFTCollateral",
          "name": "collateral",
          "type": "tuple"
        }
      ],
      "stateMutability": "view",
      "type": "function"
    },
    {
      "inputs": [
        {
          "internalType": "address",
          "name": "",
          "type": "address"
        }
      ],
      "name": "listedNFTCount",
      "outputs": [
        {
          "internalType": "uint256",
          "name": "",
          "type": "uint256"
        }
      ],
      "stateMutability": "view",
      "type": "function"
    },
    {
      "inputs": [
        {
          "internalType": "address",
          "name": "operator",
          "type": "address"
        },
        {
          "internalType": "address",
          "name": "from",
          "type": "address"
        },
        {
          "internalType": "uint256[]",
          "name": "ids",
          "type": "uint256[]"
        },
        {
          "internalType": "uint256[]",
          "name": "values",
          "type": "uint256[]"
        },
        {
          "internalType": "bytes",
          "name": "data",
          "type": "bytes"
        }
      ],
      "name": "onERC1155BatchReceived",
      "outputs": [
        {
          "internalType": "bytes4",
          "name": "",
          "type": "bytes4"
        }
      ],
      "stateMutability": "nonpayable",
      "type": "function"
    },
    {
      "inputs": [
        {
          "internalType": "address",
          "name": "operator",
          "type": "address"
        },
        {
          "internalType": "address",
          "name": "from",
          "type": "address"
        },
        {
          "internalType": "uint256",
          "name": "id",
          "type": "uint256"
        },
        {
          "internalType": "uint256",
          "name": "value",
          "type": "uint256"
        },
        {
          "internalType": "bytes",
          "name": "data",
          "type": "bytes"
        }
      ],
      "name": "onERC1155Received",
      "outputs": [
        {
          "internalType": "bytes4",
          "name": "",
          "type": "bytes4"
        }
      ],
      "stateMutability": "nonpayable",
      "type": "function"
    },
    {
      "inputs": [],
      "name": "owner",
      "outputs": [
        {
          "internalType": "address",
          "name": "",
          "type": "address"
        }
      ],
      "stateMutability": "view",
      "type": "function"
    },
    {
      "inputs": [],
      "name": "renounceOwnership",
      "outputs": [],
      "stateMutability": "nonpayable",
      "type": "function"
    },
    {
      "inputs": [
        {
          "internalType": "bytes4",
          "name": "interfaceId",
          "type": "bytes4"
        }
      ],
      "name": "supportsInterface",
      "outputs": [
        {
          "internalType": "bool",
          "name": "",
          "type": "bool"
        }
      ],
      "stateMutability": "view",
      "type": "function"
    },
    {
      "inputs": [
        {
          "internalType": "address",
          "name": "newOwner",
          "type": "address"
        }
      ],
      "name": "transferOwnership",
      "outputs": [],
      "stateMutability": "nonpayable",
      "type": "function"
    }
  ],
  "transactionHash": "0x5b1c28e89237cb5ce41d8ec369454525bbdb9e1d62e96694f5ca7d3a94af6e88",
  "args": [],
  "numDeployments": 1,
  "solcInputHash": "d274cabe27253e018b4abb0985ae0d22",
  "bytecode": "0x608060405234801561001057600080fd5b5061002d61002261003260201b60201c565b61003a60201b60201c565b6100fe565b600033905090565b60008060009054906101000a900473ffffffffffffffffffffffffffffffffffffffff169050816000806101000a81548173ffffffffffffffffffffffffffffffffffffffff021916908373ffffffffffffffffffffffffffffffffffffffff1602179055508173ffffffffffffffffffffffffffffffffffffffff168173ffffffffffffffffffffffffffffffffffffffff167f8be0079c531659141344cd1fd0a4f28419497f9722a3daafe3b4186f6b6457e060405160405180910390a35050565b612276806200010e6000396000f3fe608060405234801561001057600080fd5b50600436106100cf5760003560e01c8063927a75811161008c578063bc197c8111610066578063bc197c811461021b578063e3a661da1461024b578063f23a6e611461027b578063f2fde38b146102ab576100cf565b8063927a75811461019f578063929eea21146101bb5780639cc938e2146101eb576100cf565b806301ffc9a7146100d45780631a9b36941461010457806327a2aa4a1461013b5780634b58ffaa14610159578063715018a6146101775780638da5cb5b14610181575b600080fd5b6100ee60048036038101906100e99190611816565b6102c7565b6040516100fb9190611c85565b60405180910390f35b61011e600480360381019061011991906117d6565b610341565b604051610132989796959493929190611d16565b60405180910390f35b6101436104f1565b6040516101509190611cfb565b60405180910390f35b610161610501565b60405161016e9190611c63565b60405180910390f35b61017f6108d7565b005b6101896108eb565b6040516101969190611c48565b60405180910390f35b6101b960048036038101906101b49190611870565b610914565b005b6101d560048036038101906101d09190611843565b610bb3565b6040516101e29190611c48565b60405180910390f35b61020560048036038101906102009190611633565b610bf2565b6040516102129190611c63565b60405180910390f35b61023560048036038101906102309190611660565b610f67565b6040516102429190611ca0565b60405180910390f35b61026560048036038101906102609190611633565b610f98565b6040516102729190611cfb565b60405180910390f35b6102956004803603810190610290919061173c565b610fb0565b6040516102a29190611ca0565b60405180910390f35b6102c560048036038101906102c09190611633565b610fdf565b005b60007f4e2312e0000000000000000000000000000000000000000000000000000000007bffffffffffffffffffffffffffffffffffffffffffffffffffffffff1916827bffffffffffffffffffffffffffffffffffffffffffffffffffffffff1916148061033a575061033982611063565b5b9050919050565b6001602052816000526040600020602052806000526040600020600091509150508060000154908060010160009054906101000a900473ffffffffffffffffffffffffffffffffffffffff16908060020154908060030180546103a390611f8f565b80601f01602080910402602001604051908101604052809291908181526020018280546103cf90611f8f565b801561041c5780601f106103f15761010080835404028352916020019161041c565b820191906000526020600020905b8154815290600101906020018083116103ff57829003601f168201915b5050505050908060040154908060050160009054906101000a900460ff1690806006015490806007016040518060400160405290816000820154815260200160018201805461046a90611f8f565b80601f016020809104026020016040519081016040528092919081815260200182805461049690611f8f565b80156104e35780601f106104b8576101008083540402835291602001916104e3565b820191906000526020600020905b8154815290600101906020018083116104c657829003601f168201915b505050505081525050905088565b60006104fb610501565b51905090565b6060600060035467ffffffffffffffff811115610521576105206120f7565b5b60405190808252806020026020018201604052801561055a57816020015b610547611327565b81526020019060019003908161053f5790505b50905060005b6005805490508110156108cf5760005b6002600060058481548110610588576105876120c8565b5b9060005260206000200160009054906101000a900473ffffffffffffffffffffffffffffffffffffffff1673ffffffffffffffffffffffffffffffffffffffff1673ffffffffffffffffffffffffffffffffffffffff168152602001908152602001600020548110156108bb57600160006005848154811061060d5761060c6120c8565b5b9060005260206000200160009054906101000a900473ffffffffffffffffffffffffffffffffffffffff1673ffffffffffffffffffffffffffffffffffffffff1673ffffffffffffffffffffffffffffffffffffffff168152602001908152602001600020600082815260200190815260200160002060405180610100016040529081600082015481526020016001820160009054906101000a900473ffffffffffffffffffffffffffffffffffffffff1673ffffffffffffffffffffffffffffffffffffffff1673ffffffffffffffffffffffffffffffffffffffff1681526020016002820154815260200160038201805461070990611f8f565b80601f016020809104026020016040519081016040528092919081815260200182805461073590611f8f565b80156107825780601f1061075757610100808354040283529160200191610782565b820191906000526020600020905b81548152906001019060200180831161076557829003601f168201915b50505050508152602001600482015481526020016005820160009054906101000a900460ff1660018111156107ba576107b961206a565b5b60018111156107cc576107cb61206a565b5b815260200160068201548152602001600782016040518060400160405290816000820154815260200160018201805461080490611f8f565b80601f016020809104026020016040519081016040528092919081815260200182805461083090611f8f565b801561087d5780601f106108525761010080835404028352916020019161087d565b820191906000526020600020905b81548152906001019060200180831161086057829003601f168201915b5050505050815250508152505083828151811061089d5761089c6120c8565b5b602002602001018190525080806108b390611ff2565b915050610570565b5080806108c790611ff2565b915050610560565b508091505090565b6108df6110cd565b6108e9600061114b565b565b60008060009054906101000a900473ffffffffffffffffffffffffffffffffffffffff16905090565b61091d3361120f565b600160035461092c9190611e5e565b6003819055506000600260003373ffffffffffffffffffffffffffffffffffffffff1673ffffffffffffffffffffffffffffffffffffffff1681526020019081526020016000205490506040518061010001604052808a81526020018973ffffffffffffffffffffffffffffffffffffffff1681526020018881526020018781526020018681526020018560018111156109c9576109c861206a565b5b815260200184815260200183815250600160003373ffffffffffffffffffffffffffffffffffffffff1673ffffffffffffffffffffffffffffffffffffffff16815260200190815260200160002060008381526020019081526020016000206000820151816000015560208201518160010160006101000a81548173ffffffffffffffffffffffffffffffffffffffff021916908373ffffffffffffffffffffffffffffffffffffffff160217905550604082015181600201556060820151816003019080519060200190610a9f92919061139a565b506080820151816004015560a08201518160050160006101000a81548160ff02191690836001811115610ad557610ad461206a565b5b021790555060c0820151816006015560e082015181600701600082015181600001556020820151816001019080519060200190610b1392919061139a565b5050509050506001600260003373ffffffffffffffffffffffffffffffffffffffff1673ffffffffffffffffffffffffffffffffffffffff16815260200190815260200160002054610b659190611e5e565b600260003373ffffffffffffffffffffffffffffffffffffffff1673ffffffffffffffffffffffffffffffffffffffff16815260200190815260200160002081905550505050505050505050565b60058181548110610bc357600080fd5b906000526020600020016000915054906101000a900473ffffffffffffffffffffffffffffffffffffffff1681565b60606000600260008473ffffffffffffffffffffffffffffffffffffffff1673ffffffffffffffffffffffffffffffffffffffff1681526020019081526020016000205467ffffffffffffffff811115610c4f57610c4e6120f7565b5b604051908082528060200260200182016040528015610c8857816020015b610c75611327565b815260200190600190039081610c6d5790505b50905060005b600260008573ffffffffffffffffffffffffffffffffffffffff1673ffffffffffffffffffffffffffffffffffffffff16815260200190815260200160002054811015610f5d57600160008573ffffffffffffffffffffffffffffffffffffffff1673ffffffffffffffffffffffffffffffffffffffff168152602001908152602001600020600082815260200190815260200160002060405180610100016040529081600082015481526020016001820160009054906101000a900473ffffffffffffffffffffffffffffffffffffffff1673ffffffffffffffffffffffffffffffffffffffff1673ffffffffffffffffffffffffffffffffffffffff16815260200160028201548152602001600382018054610dab90611f8f565b80601f0160208091040260200160405190810160405280929190818152602001828054610dd790611f8f565b8015610e245780601f10610df957610100808354040283529160200191610e24565b820191906000526020600020905b815481529060010190602001808311610e0757829003601f168201915b50505050508152602001600482015481526020016005820160009054906101000a900460ff166001811115610e5c57610e5b61206a565b5b6001811115610e6e57610e6d61206a565b5b8152602001600682015481526020016007820160405180604001604052908160008201548152602001600182018054610ea690611f8f565b80601f0160208091040260200160405190810160405280929190818152602001828054610ed290611f8f565b8015610f1f5780601f10610ef457610100808354040283529160200191610f1f565b820191906000526020600020905b815481529060010190602001808311610f0257829003601f168201915b50505050508152505081525050828281518110610f3f57610f3e6120c8565b5b60200260200101819052508080610f5590611ff2565b915050610c8e565b5080915050919050565b60007fbc197c819b3e337a6f9652dd10becd7eef83032af3b9d958d3d42f6694146621905098975050505050505050565b60026020528060005260406000206000915090505481565b60007ff23a6e612e1ff4830e658fe43f4e3cb4a5f8170bd5d9e69fb5d7a7fa9e4fdf9790509695505050505050565b610fe76110cd565b600073ffffffffffffffffffffffffffffffffffffffff168173ffffffffffffffffffffffffffffffffffffffff161415611057576040517f08c379a000000000000000000000000000000000000000000000000000000000815260040161104e90611cbb565b60405180910390fd5b6110608161114b565b50565b60007f01ffc9a7000000000000000000000000000000000000000000000000000000007bffffffffffffffffffffffffffffffffffffffffffffffffffffffff1916827bffffffffffffffffffffffffffffffffffffffffffffffffffffffff1916149050919050565b6110d561131f565b73ffffffffffffffffffffffffffffffffffffffff166110f36108eb565b73ffffffffffffffffffffffffffffffffffffffff1614611149576040517f08c379a000000000000000000000000000000000000000000000000000000000815260040161114090611cdb565b60405180910390fd5b565b60008060009054906101000a900473ffffffffffffffffffffffffffffffffffffffff169050816000806101000a81548173ffffffffffffffffffffffffffffffffffffffff021916908373ffffffffffffffffffffffffffffffffffffffff1602179055508173ffffffffffffffffffffffffffffffffffffffff168173ffffffffffffffffffffffffffffffffffffffff167f8be0079c531659141344cd1fd0a4f28419497f9722a3daafe3b4186f6b6457e060405160405180910390a35050565b600460008273ffffffffffffffffffffffffffffffffffffffff1673ffffffffffffffffffffffffffffffffffffffff16815260200190815260200160002060009054906101000a900460ff1661131c576005819080600181540180825580915050600190039060005260206000200160009091909190916101000a81548173ffffffffffffffffffffffffffffffffffffffff021916908373ffffffffffffffffffffffffffffffffffffffff1602179055506001600460008373ffffffffffffffffffffffffffffffffffffffff1673ffffffffffffffffffffffffffffffffffffffff16815260200190815260200160002060006101000a81548160ff0219169083151502179055505b50565b600033905090565b60405180610100016040528060008152602001600073ffffffffffffffffffffffffffffffffffffffff168152602001600081526020016060815260200160008152602001600060018111156113805761137f61206a565b5b815260200160008152602001611394611420565b81525090565b8280546113a690611f8f565b90600052602060002090601f0160209004810192826113c8576000855561140f565b82601f106113e157805160ff191683800117855561140f565b8280016001018555821561140f579182015b8281111561140e5782518255916020019190600101906113f3565b5b50905061141c919061143a565b5090565b604051806040016040528060008152602001606081525090565b5b8082111561145357600081600090555060010161143b565b5090565b600061146a61146584611dc7565b611da2565b9050828152602081018484840111156114865761148561213f565b5b611491848285611f4d565b509392505050565b6000813590506114a8816121eb565b92915050565b60008083601f8401126114c4576114c361212b565b5b8235905067ffffffffffffffff8111156114e1576114e0612126565b5b6020830191508360208202830111156114fd576114fc61213a565b5b9250929050565b60008135905061151381612202565b92915050565b60008083601f84011261152f5761152e61212b565b5b8235905067ffffffffffffffff81111561154c5761154b612126565b5b6020830191508360018202830111156115685761156761213a565b5b9250929050565b60008135905061157e81612219565b92915050565b600082601f8301126115995761159861212b565b5b81356115a9848260208601611457565b91505092915050565b6000604082840312156115c8576115c7612130565b5b6115d26040611da2565b905060006115e28482850161161e565b600083015250602082013567ffffffffffffffff81111561160657611605612135565b5b61161284828501611584565b60208301525092915050565b60008135905061162d81612229565b92915050565b60006020828403121561164957611648612149565b5b600061165784828501611499565b91505092915050565b60008060008060008060008060a0898b0312156116805761167f612149565b5b600061168e8b828c01611499565b985050602061169f8b828c01611499565b975050604089013567ffffffffffffffff8111156116c0576116bf612144565b5b6116cc8b828c016114ae565b9650965050606089013567ffffffffffffffff8111156116ef576116ee612144565b5b6116fb8b828c016114ae565b9450945050608089013567ffffffffffffffff81111561171e5761171d612144565b5b61172a8b828c01611519565b92509250509295985092959890939650565b60008060008060008060a0878903121561175957611758612149565b5b600061176789828a01611499565b965050602061177889828a01611499565b955050604061178989828a0161161e565b945050606061179a89828a0161161e565b935050608087013567ffffffffffffffff8111156117bb576117ba612144565b5b6117c789828a01611519565b92509250509295509295509295565b600080604083850312156117ed576117ec612149565b5b60006117fb85828601611499565b925050602061180c8582860161161e565b9150509250929050565b60006020828403121561182c5761182b612149565b5b600061183a84828501611504565b91505092915050565b60006020828403121561185957611858612149565b5b60006118678482850161161e565b91505092915050565b600080600080600080600080610100898b03121561189157611890612149565b5b600061189f8b828c0161161e565b98505060206118b08b828c01611499565b97505060406118c18b828c0161161e565b965050606089013567ffffffffffffffff8111156118e2576118e1612144565b5b6118ee8b828c01611584565b95505060806118ff8b828c0161161e565b94505060a06119108b828c0161156f565b93505060c06119218b828c0161161e565b92505060e089013567ffffffffffffffff81111561194257611941612144565b5b61194e8b828c016115b2565b9150509295985092959890939650565b600061196a8383611b73565b905092915050565b61197b81611eb4565b82525050565b61198a81611eb4565b82525050565b600061199b82611e08565b6119a58185611e2b565b9350836020820285016119b785611df8565b8060005b858110156119f357848403895281516119d4858261195e565b94506119df83611e1e565b925060208a019950506001810190506119bb565b50829750879550505050505092915050565b611a0e81611ec6565b82525050565b611a1d81611ed2565b82525050565b611a2c81611f3b565b82525050565b611a3b81611f3b565b82525050565b6000611a4c82611e13565b611a568185611e3c565b9350611a66818560208601611f5c565b611a6f8161214e565b840191505092915050565b6000611a8582611e13565b611a8f8185611e4d565b9350611a9f818560208601611f5c565b611aa88161214e565b840191505092915050565b6000611ac0602683611e4d565b9150611acb8261215f565b604082019050919050565b6000611ae3602083611e4d565b9150611aee826121ae565b602082019050919050565b6000604083016000830151611b116000860182611c2a565b5060208301518482036020860152611b298282611a41565b9150508091505092915050565b6000604083016000830151611b4e6000860182611c2a565b5060208301518482036020860152611b668282611a41565b9150508091505092915050565b600061010083016000830151611b8c6000860182611c2a565b506020830151611b9f6020860182611972565b506040830151611bb26040860182611c2a565b5060608301518482036060860152611bca8282611a41565b9150506080830151611bdf6080860182611c2a565b5060a0830151611bf260a0860182611a23565b5060c0830151611c0560c0860182611c2a565b5060e083015184820360e0860152611c1d8282611af9565b9150508091505092915050565b611c3381611f31565b82525050565b611c4281611f31565b82525050565b6000602082019050611c5d6000830184611981565b92915050565b60006020820190508181036000830152611c7d8184611990565b905092915050565b6000602082019050611c9a6000830184611a05565b92915050565b6000602082019050611cb56000830184611a14565b92915050565b60006020820190508181036000830152611cd481611ab3565b9050919050565b60006020820190508181036000830152611cf481611ad6565b9050919050565b6000602082019050611d106000830184611c39565b92915050565b600061010082019050611d2c600083018b611c39565b611d39602083018a611981565b611d466040830189611c39565b8181036060830152611d588188611a7a565b9050611d676080830187611c39565b611d7460a0830186611a32565b611d8160c0830185611c39565b81810360e0830152611d938184611b36565b90509998505050505050505050565b6000611dac611dbd565b9050611db88282611fc1565b919050565b6000604051905090565b600067ffffffffffffffff821115611de257611de16120f7565b5b611deb8261214e565b9050602081019050919050565b6000819050602082019050919050565b600081519050919050565b600081519050919050565b6000602082019050919050565b600082825260208201905092915050565b600082825260208201905092915050565b600082825260208201905092915050565b6000611e6982611f31565b9150611e7483611f31565b9250827fffffffffffffffffffffffffffffffffffffffffffffffffffffffffffffffff03821115611ea957611ea861203b565b5b828201905092915050565b6000611ebf82611f11565b9050919050565b60008115159050919050565b60007fffffffff0000000000000000000000000000000000000000000000000000000082169050919050565b6000819050611f0c826121d7565b919050565b600073ffffffffffffffffffffffffffffffffffffffff82169050919050565b6000819050919050565b6000611f4682611efe565b9050919050565b82818337600083830152505050565b60005b83811015611f7a578082015181840152602081019050611f5f565b83811115611f89576000848401525b50505050565b60006002820490506001821680611fa757607f821691505b60208210811415611fbb57611fba612099565b5b50919050565b611fca8261214e565b810181811067ffffffffffffffff82111715611fe957611fe86120f7565b5b80604052505050565b6000611ffd82611f31565b91507fffffffffffffffffffffffffffffffffffffffffffffffffffffffffffffffff8214156120305761202f61203b565b5b600182019050919050565b7f4e487b7100000000000000000000000000000000000000000000000000000000600052601160045260246000fd5b7f4e487b7100000000000000000000000000000000000000000000000000000000600052602160045260246000fd5b7f4e487b7100000000000000000000000000000000000000000000000000000000600052602260045260246000fd5b7f4e487b7100000000000000000000000000000000000000000000000000000000600052603260045260246000fd5b7f4e487b7100000000000000000000000000000000000000000000000000000000600052604160045260246000fd5b600080fd5b600080fd5b600080fd5b600080fd5b600080fd5b600080fd5b600080fd5b600080fd5b6000601f19601f8301169050919050565b7f4f776e61626c653a206e6577206f776e657220697320746865207a65726f206160008201527f6464726573730000000000000000000000000000000000000000000000000000602082015250565b7f4f776e61626c653a2063616c6c6572206973206e6f7420746865206f776e6572600082015250565b600281106121e8576121e761206a565b5b50565b6121f481611eb4565b81146121ff57600080fd5b50565b61220b81611ed2565b811461221657600080fd5b50565b6002811061222657600080fd5b50565b61223281611f31565b811461223d57600080fd5b5056fea26469706673582212203e2afb3a7bf4e9361831648941e248ba5d724e54f2ab0e89df51040d6119247464736f6c63430008070033",
  "devdoc": {
    "kind": "dev",
    "methods": {
      "owner()": {
        "details": "Returns the address of the current owner."
      },
      "renounceOwnership()": {
        "details": "Leaves the contract without owner. It will not be possible to call `onlyOwner` functions anymore. Can only be called by the current owner. NOTE: Renouncing ownership will leave the contract without an owner, thereby removing any functionality that is only available to the owner."
      },
      "supportsInterface(bytes4)": {
        "details": "See {IERC165-supportsInterface}."
      },
      "transferOwnership(address)": {
        "details": "Transfers ownership of the contract to a new account (`newOwner`). Can only be called by the current owner."
      }
    },
    "version": 1
  },
  "userdoc": {
    "kind": "user",
    "methods": {
      "getAllCount()": {
        "notice": "Testing helper"
      },
      "getAllListedNFTs()": {
        "notice": "Retrieve all listings"
      },
      "getListedNFTs(address)": {
        "notice": "Retrieve all listings for a lender"
      },
      "listNFT(uint256,address,uint256,string,uint256,uint8,uint256,(uint256,string))": {
        "notice": "Listing function"
      },
      "onERC1155BatchReceived(address,address,uint256[],uint256[],bytes)": {
        "notice": "Must be implemented as per ERC1155 spec for the NFT Pool to receive ERC1155s"
      },
      "onERC1155Received(address,address,uint256,uint256,bytes)": {
        "notice": "Must be implemented as per ERC1155 spec for the NFT Pool to receive ERC1155s"
      }
    },
    "notice": "NFTPool managges all NFTs listed by the lender",
    "version": 1
  },
  "storageLayout": {
    "storage": [
      {
        "astId": 7,
        "contract": "contracts/NFTPool.sol:NFTPool",
        "label": "_owner",
        "offset": 0,
        "slot": "0",
        "type": "t_address"
      },
      {
        "astId": 1947,
        "contract": "contracts/NFTPool.sol:NFTPool",
        "label": "listedNFT",
        "offset": 0,
        "slot": "1",
        "type": "t_mapping(t_address,t_mapping(t_uint256,t_struct(NFTListing)1921_storage))"
      },
      {
        "astId": 1951,
        "contract": "contracts/NFTPool.sol:NFTPool",
        "label": "listedNFTCount",
        "offset": 0,
        "slot": "2",
        "type": "t_mapping(t_address,t_uint256)"
      },
      {
        "astId": 1953,
        "contract": "contracts/NFTPool.sol:NFTPool",
        "label": "allListedNFTs",
        "offset": 0,
        "slot": "3",
        "type": "t_uint256"
      },
      {
        "astId": 1957,
        "contract": "contracts/NFTPool.sol:NFTPool",
        "label": "lenderExists",
        "offset": 0,
        "slot": "4",
        "type": "t_mapping(t_address,t_bool)"
      },
      {
        "astId": 1960,
        "contract": "contracts/NFTPool.sol:NFTPool",
        "label": "lenders",
        "offset": 0,
        "slot": "5",
        "type": "t_array(t_address)dyn_storage"
      }
    ],
    "types": {
      "t_address": {
        "encoding": "inplace",
        "label": "address",
        "numberOfBytes": "20"
      },
      "t_array(t_address)dyn_storage": {
        "base": "t_address",
        "encoding": "dynamic_array",
        "label": "address[]",
        "numberOfBytes": "32"
      },
      "t_bool": {
        "encoding": "inplace",
        "label": "bool",
        "numberOfBytes": "1"
      },
      "t_enum(ReturnCondition)1929": {
        "encoding": "inplace",
        "label": "enum ReturnCondition",
        "numberOfBytes": "1"
      },
      "t_mapping(t_address,t_bool)": {
        "encoding": "mapping",
        "key": "t_address",
        "label": "mapping(address => bool)",
        "numberOfBytes": "32",
        "value": "t_bool"
      },
      "t_mapping(t_address,t_mapping(t_uint256,t_struct(NFTListing)1921_storage))": {
        "encoding": "mapping",
        "key": "t_address",
        "label": "mapping(address => mapping(uint256 => struct NFTListing))",
        "numberOfBytes": "32",
        "value": "t_mapping(t_uint256,t_struct(NFTListing)1921_storage)"
      },
      "t_mapping(t_address,t_uint256)": {
        "encoding": "mapping",
        "key": "t_address",
        "label": "mapping(address => uint256)",
        "numberOfBytes": "32",
        "value": "t_uint256"
      },
      "t_mapping(t_uint256,t_struct(NFTListing)1921_storage)": {
        "encoding": "mapping",
        "key": "t_uint256",
        "label": "mapping(uint256 => struct NFTListing)",
        "numberOfBytes": "32",
        "value": "t_struct(NFTListing)1921_storage"
      },
      "t_string_storage": {
        "encoding": "bytes",
        "label": "string",
        "numberOfBytes": "32"
      },
      "t_struct(NFTCollateral)1926_storage": {
        "encoding": "inplace",
        "label": "struct NFTCollateral",
        "members": [
          {
            "astId": 1923,
            "contract": "contracts/NFTPool.sol:NFTPool",
            "label": "amount",
            "offset": 0,
            "slot": "0",
            "type": "t_uint256"
          },
          {
            "astId": 1925,
            "contract": "contracts/NFTPool.sol:NFTPool",
            "label": "currency",
            "offset": 0,
            "slot": "1",
            "type": "t_string_storage"
          }
        ],
        "numberOfBytes": "64"
      },
      "t_struct(NFTListing)1921_storage": {
        "encoding": "inplace",
        "label": "struct NFTListing",
        "members": [
          {
            "astId": 1904,
            "contract": "contracts/NFTPool.sol:NFTPool",
            "label": "listedOn",
            "offset": 0,
            "slot": "0",
            "type": "t_uint256"
          },
          {
            "astId": 1906,
            "contract": "contracts/NFTPool.sol:NFTPool",
            "label": "tknAddress",
            "offset": 0,
            "slot": "1",
            "type": "t_address"
          },
          {
            "astId": 1908,
            "contract": "contracts/NFTPool.sol:NFTPool",
            "label": "tknId",
            "offset": 0,
            "slot": "2",
            "type": "t_uint256"
          },
          {
            "astId": 1910,
            "contract": "contracts/NFTPool.sol:NFTPool",
            "label": "compliance",
            "offset": 0,
            "slot": "3",
            "type": "t_string_storage"
          },
          {
            "astId": 1912,
            "contract": "contracts/NFTPool.sol:NFTPool",
            "label": "dailyFee",
            "offset": 0,
            "slot": "4",
            "type": "t_uint256"
          },
          {
            "astId": 1915,
            "contract": "contracts/NFTPool.sol:NFTPool",
            "label": "returnCondition",
            "offset": 0,
            "slot": "5",
            "type": "t_enum(ReturnCondition)1929"
          },
          {
            "astId": 1917,
            "contract": "contracts/NFTPool.sol:NFTPool",
            "label": "expiry",
            "offset": 0,
            "slot": "6",
            "type": "t_uint256"
          },
          {
            "astId": 1920,
            "contract": "contracts/NFTPool.sol:NFTPool",
            "label": "collateral",
            "offset": 0,
            "slot": "7",
            "type": "t_struct(NFTCollateral)1926_storage"
          }
        ],
        "numberOfBytes": "288"
      },
      "t_uint256": {
        "encoding": "inplace",
        "label": "uint256",
        "numberOfBytes": "32"
      }
    }
  }
}