{
  "address": "0x51047baaF2a9BcD89DA5CB7aD56BB4468B0d4d02",
  "abi": [
    {
      "anonymous": false,
      "inputs": [
        {
          "indexed": true,
          "internalType": "address",
          "name": "previousOwner",
          "type": "address"
        },
        {
          "indexed": true,
          "internalType": "address",
          "name": "newOwner",
          "type": "address"
        }
      ],
      "name": "OwnershipTransferred",
      "type": "event"
    },
    {
      "inputs": [
        {
          "internalType": "address",
          "name": "",
          "type": "address"
        },
        {
          "internalType": "uint256",
          "name": "",
          "type": "uint256"
        }
      ],
      "name": "loanedNFT",
      "outputs": [
        {
          "internalType": "uint256",
          "name": "borrowedOn",
          "type": "uint256"
        },
        {
          "components": [
            {
              "internalType": "uint256",
              "name": "listedOn",
              "type": "uint256"
            },
            {
              "internalType": "address",
              "name": "tknAddress",
              "type": "address"
            },
            {
              "internalType": "uint256",
              "name": "tknId",
              "type": "uint256"
            },
            {
              "internalType": "string",
              "name": "compliance",
              "type": "string"
            },
            {
              "internalType": "uint256",
              "name": "dailyFee",
              "type": "uint256"
            },
            {
              "internalType": "enum ReturnCondition",
              "name": "returnCondition",
              "type": "uint8"
            },
            {
              "internalType": "uint256",
              "name": "expiry",
              "type": "uint256"
            },
            {
              "components": [
                {
                  "internalType": "uint256",
                  "name": "amount",
                  "type": "uint256"
                },
                {
                  "internalType": "string",
                  "name": "currency",
                  "type": "string"
                }
              ],
              "internalType": "struct NFTCollateral",
              "name": "collateral",
              "type": "tuple"
            }
          ],
          "internalType": "struct NFTListing",
          "name": "listing",
          "type": "tuple"
        },
        {
          "internalType": "uint256",
          "name": "paid",
          "type": "uint256"
        },
        {
          "internalType": "uint256",
          "name": "sold",
          "type": "uint256"
        }
      ],
      "stateMutability": "view",
      "type": "function"
    },
    {
      "inputs": [
        {
          "internalType": "address",
          "name": "",
          "type": "address"
        }
      ],
      "name": "loanedNFTCount",
      "outputs": [
        {
          "internalType": "uint256",
          "name": "",
          "type": "uint256"
        }
      ],
      "stateMutability": "view",
      "type": "function"
    },
    {
      "inputs": [],
      "name": "owner",
      "outputs": [
        {
          "internalType": "address",
          "name": "",
          "type": "address"
        }
      ],
      "stateMutability": "view",
      "type": "function"
    },
    {
      "inputs": [],
      "name": "renounceOwnership",
      "outputs": [],
      "stateMutability": "nonpayable",
      "type": "function"
    },
    {
      "inputs": [
        {
          "internalType": "address",
          "name": "borrower",
          "type": "address"
        },
        {
          "components": [
            {
              "internalType": "uint256",
              "name": "listedOn",
              "type": "uint256"
            },
            {
              "internalType": "address",
              "name": "tknAddress",
              "type": "address"
            },
            {
              "internalType": "uint256",
              "name": "tknId",
              "type": "uint256"
            },
            {
              "internalType": "string",
              "name": "compliance",
              "type": "string"
            },
            {
              "internalType": "uint256",
              "name": "dailyFee",
              "type": "uint256"
            },
            {
              "internalType": "enum ReturnCondition",
              "name": "returnCondition",
              "type": "uint8"
            },
            {
              "internalType": "uint256",
              "name": "expiry",
              "type": "uint256"
            },
            {
              "components": [
                {
                  "internalType": "uint256",
                  "name": "amount",
                  "type": "uint256"
                },
                {
                  "internalType": "string",
                  "name": "currency",
                  "type": "string"
                }
              ],
              "internalType": "struct NFTCollateral",
              "name": "collateral",
              "type": "tuple"
            }
          ],
          "internalType": "struct NFTListing",
          "name": "listing",
          "type": "tuple"
        }
      ],
      "name": "takeLoan",
      "outputs": [],
      "stateMutability": "nonpayable",
      "type": "function"
    },
    {
      "inputs": [
        {
          "internalType": "address",
          "name": "borrower",
          "type": "address"
        },
        {
          "components": [
            {
              "internalType": "uint256",
              "name": "listedOn",
              "type": "uint256"
            },
            {
              "internalType": "address",
              "name": "tknAddress",
              "type": "address"
            },
            {
              "internalType": "uint256",
              "name": "tknId",
              "type": "uint256"
            },
            {
              "internalType": "string",
              "name": "compliance",
              "type": "string"
            },
            {
              "internalType": "uint256",
              "name": "dailyFee",
              "type": "uint256"
            },
            {
              "internalType": "enum ReturnCondition",
              "name": "returnCondition",
              "type": "uint8"
            },
            {
              "internalType": "uint256",
              "name": "expiry",
              "type": "uint256"
            },
            {
              "components": [
                {
                  "internalType": "uint256",
                  "name": "amount",
                  "type": "uint256"
                },
                {
                  "internalType": "string",
                  "name": "currency",
                  "type": "string"
                }
              ],
              "internalType": "struct NFTCollateral",
              "name": "collateral",
              "type": "tuple"
            }
          ],
          "internalType": "struct NFTListing",
          "name": "listing",
          "type": "tuple"
        },
        {
          "internalType": "uint256",
          "name": "time",
          "type": "uint256"
        }
      ],
      "name": "takeLoanAt",
      "outputs": [],
      "stateMutability": "nonpayable",
      "type": "function"
    },
    {
      "inputs": [
        {
          "internalType": "address",
          "name": "newOwner",
          "type": "address"
        }
      ],
      "name": "transferOwnership",
      "outputs": [],
      "stateMutability": "nonpayable",
      "type": "function"
    }
  ],
  "transactionHash": "0x940f81a8546482c0d536841f252597ddba25f680e57f01814c19bad37e0d4a06",
  "args": [],
  "numDeployments": 4,
  "solcInputHash": "e23664cdc599c872c50ac91af5ee42c3",
  "bytecode": "0x608060405234801561001057600080fd5b5061002d61002261003260201b60201c565b61003a60201b60201c565b6100fe565b600033905090565b60008060009054906101000a900473ffffffffffffffffffffffffffffffffffffffff169050816000806101000a81548173ffffffffffffffffffffffffffffffffffffffff021916908373ffffffffffffffffffffffffffffffffffffffff1602179055508173ffffffffffffffffffffffffffffffffffffffff168173ffffffffffffffffffffffffffffffffffffffff167f8be0079c531659141344cd1fd0a4f28419497f9722a3daafe3b4186f6b6457e060405160405180910390a35050565b6114d48061010d6000396000f3fe608060405234801561001057600080fd5b506004361061007d5760003560e01c80638d1c3e971161005b5780638d1c3e97146100d85780638da5cb5b1461010b578063a4fb75bc14610129578063f2fde38b146101455761007d565b8063588b23e914610082578063715018a6146100b257806389d53f01146100bc575b600080fd5b61009c60048036038101906100979190610d52565b610161565b6040516100a991906110a3565b60405180910390f35b6100ba610179565b005b6100d660048036038101906100d19190610d7f565b61018d565b005b6100f260048036038101906100ed9190610e4a565b6103f2565b60405161010294939291906110be565b60405180910390f35b610113610635565b6040516101209190611048565b60405180910390f35b610143600480360381019061013e9190610ddb565b61065e565b005b61015f600480360381019061015a9190610d52565b6108c4565b005b60026020528060005260406000206000915090505481565b610181610948565b61018b60006109c6565b565b6001600260008473ffffffffffffffffffffffffffffffffffffffff1673ffffffffffffffffffffffffffffffffffffffff168152602001908152602001600020546101d9919061118d565b600260008473ffffffffffffffffffffffffffffffffffffffff1673ffffffffffffffffffffffffffffffffffffffff168152602001908152602001600020819055506000600260008473ffffffffffffffffffffffffffffffffffffffff1673ffffffffffffffffffffffffffffffffffffffff1681526020019081526020016000205490506040518060800160405280428152602001838152602001600081526020016000815250600160008573ffffffffffffffffffffffffffffffffffffffff1673ffffffffffffffffffffffffffffffffffffffff1681526020019081526020016000206000838152602001908152602001600020600082015181600001556020820151816001016000820151816000015560208201518160010160006101000a81548173ffffffffffffffffffffffffffffffffffffffff021916908373ffffffffffffffffffffffffffffffffffffffff16021790555060408201518160020155606082015181600301908051906020019061035d929190610a92565b506080820151816004015560a08201518160050160006101000a81548160ff0219169083600181111561039357610392611318565b5b021790555060c0820151816006015560e0820151816007016000820151816000015560208201518160010190805190602001906103d1929190610a92565b5050505050604082015181600a0155606082015181600b0155905050505050565b6001602052816000526040600020602052806000526040600020600091509150508060000154908060010160405180610100016040529081600082015481526020016001820160009054906101000a900473ffffffffffffffffffffffffffffffffffffffff1673ffffffffffffffffffffffffffffffffffffffff1673ffffffffffffffffffffffffffffffffffffffff168152602001600282015481526020016003820180546104a390611286565b80601f01602080910402602001604051908101604052809291908181526020018280546104cf90611286565b801561051c5780601f106104f15761010080835404028352916020019161051c565b820191906000526020600020905b8154815290600101906020018083116104ff57829003601f168201915b50505050508152602001600482015481526020016005820160009054906101000a900460ff16600181111561055457610553611318565b5b600181111561056657610565611318565b5b815260200160068201548152602001600782016040518060400160405290816000820154815260200160018201805461059e90611286565b80601f01602080910402602001604051908101604052809291908181526020018280546105ca90611286565b80156106175780601f106105ec57610100808354040283529160200191610617565b820191906000526020600020905b8154815290600101906020018083116105fa57829003601f168201915b505050505081525050815250509080600a01549080600b0154905084565b60008060009054906101000a900473ffffffffffffffffffffffffffffffffffffffff16905090565b6001600260008573ffffffffffffffffffffffffffffffffffffffff1673ffffffffffffffffffffffffffffffffffffffff168152602001908152602001600020546106aa919061118d565b600260008573ffffffffffffffffffffffffffffffffffffffff1673ffffffffffffffffffffffffffffffffffffffff168152602001908152602001600020819055506000600260008573ffffffffffffffffffffffffffffffffffffffff1673ffffffffffffffffffffffffffffffffffffffff1681526020019081526020016000205490506040518060800160405280838152602001848152602001600081526020016000815250600160008673ffffffffffffffffffffffffffffffffffffffff1673ffffffffffffffffffffffffffffffffffffffff1681526020019081526020016000206000838152602001908152602001600020600082015181600001556020820151816001016000820151816000015560208201518160010160006101000a81548173ffffffffffffffffffffffffffffffffffffffff021916908373ffffffffffffffffffffffffffffffffffffffff16021790555060408201518160020155606082015181600301908051906020019061082e929190610a92565b506080820151816004015560a08201518160050160006101000a81548160ff0219169083600181111561086457610863611318565b5b021790555060c0820151816006015560e0820151816007016000820151816000015560208201518160010190805190602001906108a2929190610a92565b5050505050604082015181600a0155606082015181600b015590505050505050565b6108cc610948565b600073ffffffffffffffffffffffffffffffffffffffff168173ffffffffffffffffffffffffffffffffffffffff16141561093c576040517f08c379a000000000000000000000000000000000000000000000000000000000815260040161093390611063565b60405180910390fd5b610945816109c6565b50565b610950610a8a565b73ffffffffffffffffffffffffffffffffffffffff1661096e610635565b73ffffffffffffffffffffffffffffffffffffffff16146109c4576040517f08c379a00000000000000000000000000000000000000000000000000000000081526004016109bb90611083565b60405180910390fd5b565b60008060009054906101000a900473ffffffffffffffffffffffffffffffffffffffff169050816000806101000a81548173ffffffffffffffffffffffffffffffffffffffff021916908373ffffffffffffffffffffffffffffffffffffffff1602179055508173ffffffffffffffffffffffffffffffffffffffff168173ffffffffffffffffffffffffffffffffffffffff167f8be0079c531659141344cd1fd0a4f28419497f9722a3daafe3b4186f6b6457e060405160405180910390a35050565b600033905090565b828054610a9e90611286565b90600052602060002090601f016020900481019282610ac05760008555610b07565b82601f10610ad957805160ff1916838001178555610b07565b82800160010185558215610b07579182015b82811115610b06578251825591602001919060010190610aeb565b5b509050610b149190610b18565b5090565b5b80821115610b31576000816000905550600101610b19565b5090565b6000610b48610b438461112f565b61110a565b905082815260208101848484011115610b6457610b636113b4565b5b610b6f848285611244565b509392505050565b600081359050610b8681611460565b92915050565b600081359050610b9b81611477565b92915050565b600082601f830112610bb657610bb56113a5565b5b8135610bc6848260208601610b35565b91505092915050565b600060408284031215610be557610be46113aa565b5b610bef604061110a565b90506000610bff84828501610d3d565b600083015250602082013567ffffffffffffffff811115610c2357610c226113af565b5b610c2f84828501610ba1565b60208301525092915050565b60006101008284031215610c5257610c516113aa565b5b610c5d61010061110a565b90506000610c6d84828501610d3d565b6000830152506020610c8184828501610b77565b6020830152506040610c9584828501610d3d565b604083015250606082013567ffffffffffffffff811115610cb957610cb86113af565b5b610cc584828501610ba1565b6060830152506080610cd984828501610d3d565b60808301525060a0610ced84828501610b8c565b60a08301525060c0610d0184828501610d3d565b60c08301525060e082013567ffffffffffffffff811115610d2557610d246113af565b5b610d3184828501610bcf565b60e08301525092915050565b600081359050610d4c81611487565b92915050565b600060208284031215610d6857610d676113be565b5b6000610d7684828501610b77565b91505092915050565b60008060408385031215610d9657610d956113be565b5b6000610da485828601610b77565b925050602083013567ffffffffffffffff811115610dc557610dc46113b9565b5b610dd185828601610c3b565b9150509250929050565b600080600060608486031215610df457610df36113be565b5b6000610e0286828701610b77565b935050602084013567ffffffffffffffff811115610e2357610e226113b9565b5b610e2f86828701610c3b565b9250506040610e4086828701610d3d565b9150509250925092565b60008060408385031215610e6157610e606113be565b5b6000610e6f85828601610b77565b9250506020610e8085828601610d3d565b9150509250929050565b610e93816111e3565b82525050565b610ea2816111e3565b82525050565b610eb181611232565b82525050565b6000610ec282611160565b610ecc818561116b565b9350610edc818560208601611253565b610ee5816113c3565b840191505092915050565b6000610efd60268361117c565b9150610f08826113d4565b604082019050919050565b6000610f2060208361117c565b9150610f2b82611423565b602082019050919050565b6000604083016000830151610f4e600086018261102a565b5060208301518482036020860152610f668282610eb7565b9150508091505092915050565b600061010083016000830151610f8c600086018261102a565b506020830151610f9f6020860182610e8a565b506040830151610fb2604086018261102a565b5060608301518482036060860152610fca8282610eb7565b9150506080830151610fdf608086018261102a565b5060a0830151610ff260a0860182610ea8565b5060c083015161100560c086018261102a565b5060e083015184820360e086015261101d8282610f36565b9150508091505092915050565b61103381611228565b82525050565b61104281611228565b82525050565b600060208201905061105d6000830184610e99565b92915050565b6000602082019050818103600083015261107c81610ef0565b9050919050565b6000602082019050818103600083015261109c81610f13565b9050919050565b60006020820190506110b86000830184611039565b92915050565b60006080820190506110d36000830187611039565b81810360208301526110e58186610f73565b90506110f46040830185611039565b6111016060830184611039565b95945050505050565b6000611114611125565b905061112082826112b8565b919050565b6000604051905090565b600067ffffffffffffffff82111561114a57611149611376565b5b611153826113c3565b9050602081019050919050565b600081519050919050565b600082825260208201905092915050565b600082825260208201905092915050565b600061119882611228565b91506111a383611228565b9250827fffffffffffffffffffffffffffffffffffffffffffffffffffffffffffffffff038211156111d8576111d76112e9565b5b828201905092915050565b60006111ee82611208565b9050919050565b60008190506112038261144c565b919050565b600073ffffffffffffffffffffffffffffffffffffffff82169050919050565b6000819050919050565b600061123d826111f5565b9050919050565b82818337600083830152505050565b60005b83811015611271578082015181840152602081019050611256565b83811115611280576000848401525b50505050565b6000600282049050600182168061129e57607f821691505b602082108114156112b2576112b1611347565b5b50919050565b6112c1826113c3565b810181811067ffffffffffffffff821117156112e0576112df611376565b5b80604052505050565b7f4e487b7100000000000000000000000000000000000000000000000000000000600052601160045260246000fd5b7f4e487b7100000000000000000000000000000000000000000000000000000000600052602160045260246000fd5b7f4e487b7100000000000000000000000000000000000000000000000000000000600052602260045260246000fd5b7f4e487b7100000000000000000000000000000000000000000000000000000000600052604160045260246000fd5b600080fd5b600080fd5b600080fd5b600080fd5b600080fd5b600080fd5b6000601f19601f8301169050919050565b7f4f776e61626c653a206e6577206f776e657220697320746865207a65726f206160008201527f6464726573730000000000000000000000000000000000000000000000000000602082015250565b7f4f776e61626c653a2063616c6c6572206973206e6f7420746865206f776e6572600082015250565b6002811061145d5761145c611318565b5b50565b611469816111e3565b811461147457600080fd5b50565b6002811061148457600080fd5b50565b61149081611228565b811461149b57600080fd5b5056fea26469706673582212201071b3a211d68eea09328fa1c38da4e131e7a8082d4e0862b038d6dcd634a30e64736f6c63430008070033",
  "devdoc": {
    "kind": "dev",
    "methods": {
      "owner()": {
        "details": "Returns the address of the current owner."
      },
      "renounceOwnership()": {
        "details": "Leaves the contract without owner. It will not be possible to call `onlyOwner` functions anymore. Can only be called by the current owner. NOTE: Renouncing ownership will leave the contract without an owner, thereby removing any functionality that is only available to the owner."
      },
      "transferOwnership(address)": {
        "details": "Transfers ownership of the contract to a new account (`newOwner`). Can only be called by the current owner."
      }
    },
    "version": 1
  },
  "userdoc": {
    "kind": "user",
    "methods": {
      "takeLoanAt(address,(uint256,address,uint256,string,uint256,uint8,uint256,(uint256,string)),uint256)": {
        "notice": "Helper to load test data only"
      }
    },
    "notice": "Contract to describe all Loans, the collateral and conditions accepted by the borrower",
    "version": 1
  },
  "storageLayout": {
    "storage": [
      {
        "astId": 7,
        "contract": "contracts/NFTLoans.sol:NFTLoans",
        "label": "_owner",
        "offset": 0,
        "slot": "0",
        "type": "t_address"
      },
      {
        "astId": 2172,
        "contract": "contracts/NFTLoans.sol:NFTLoans",
        "label": "loanedNFT",
        "offset": 0,
        "slot": "1",
        "type": "t_mapping(t_address,t_mapping(t_uint256,t_struct(NFTLoan)2165_storage))"
      },
      {
        "astId": 2176,
        "contract": "contracts/NFTLoans.sol:NFTLoans",
        "label": "loanedNFTCount",
        "offset": 0,
        "slot": "2",
        "type": "t_mapping(t_address,t_uint256)"
      }
    ],
    "types": {
      "t_address": {
        "encoding": "inplace",
        "label": "address",
        "numberOfBytes": "20"
      },
      "t_enum(ReturnCondition)2148": {
        "encoding": "inplace",
        "label": "enum ReturnCondition",
        "numberOfBytes": "1"
      },
      "t_mapping(t_address,t_mapping(t_uint256,t_struct(NFTLoan)2165_storage))": {
        "encoding": "mapping",
        "key": "t_address",
        "label": "mapping(address => mapping(uint256 => struct NFTLoans.NFTLoan))",
        "numberOfBytes": "32",
        "value": "t_mapping(t_uint256,t_struct(NFTLoan)2165_storage)"
      },
      "t_mapping(t_address,t_uint256)": {
        "encoding": "mapping",
        "key": "t_address",
        "label": "mapping(address => uint256)",
        "numberOfBytes": "32",
        "value": "t_uint256"
      },
      "t_mapping(t_uint256,t_struct(NFTLoan)2165_storage)": {
        "encoding": "mapping",
        "key": "t_uint256",
        "label": "mapping(uint256 => struct NFTLoans.NFTLoan)",
        "numberOfBytes": "32",
        "value": "t_struct(NFTLoan)2165_storage"
      },
      "t_string_storage": {
        "encoding": "bytes",
        "label": "string",
        "numberOfBytes": "32"
      },
      "t_struct(NFTCollateral)2145_storage": {
        "encoding": "inplace",
        "label": "struct NFTCollateral",
        "members": [
          {
            "astId": 2142,
            "contract": "contracts/NFTLoans.sol:NFTLoans",
            "label": "amount",
            "offset": 0,
            "slot": "0",
            "type": "t_uint256"
          },
          {
            "astId": 2144,
            "contract": "contracts/NFTLoans.sol:NFTLoans",
            "label": "currency",
            "offset": 0,
            "slot": "1",
            "type": "t_string_storage"
          }
        ],
        "numberOfBytes": "64"
      },
      "t_struct(NFTListing)2140_storage": {
        "encoding": "inplace",
        "label": "struct NFTListing",
        "members": [
          {
            "astId": 2123,
            "contract": "contracts/NFTLoans.sol:NFTLoans",
            "label": "listedOn",
            "offset": 0,
            "slot": "0",
            "type": "t_uint256"
          },
          {
            "astId": 2125,
            "contract": "contracts/NFTLoans.sol:NFTLoans",
            "label": "tknAddress",
            "offset": 0,
            "slot": "1",
            "type": "t_address"
          },
          {
            "astId": 2127,
            "contract": "contracts/NFTLoans.sol:NFTLoans",
            "label": "tknId",
            "offset": 0,
            "slot": "2",
            "type": "t_uint256"
          },
          {
            "astId": 2129,
            "contract": "contracts/NFTLoans.sol:NFTLoans",
            "label": "compliance",
            "offset": 0,
            "slot": "3",
            "type": "t_string_storage"
          },
          {
            "astId": 2131,
            "contract": "contracts/NFTLoans.sol:NFTLoans",
            "label": "dailyFee",
            "offset": 0,
            "slot": "4",
            "type": "t_uint256"
          },
          {
            "astId": 2134,
            "contract": "contracts/NFTLoans.sol:NFTLoans",
            "label": "returnCondition",
            "offset": 0,
            "slot": "5",
            "type": "t_enum(ReturnCondition)2148"
          },
          {
            "astId": 2136,
            "contract": "contracts/NFTLoans.sol:NFTLoans",
            "label": "expiry",
            "offset": 0,
            "slot": "6",
            "type": "t_uint256"
          },
          {
            "astId": 2139,
            "contract": "contracts/NFTLoans.sol:NFTLoans",
            "label": "collateral",
            "offset": 0,
            "slot": "7",
            "type": "t_struct(NFTCollateral)2145_storage"
          }
        ],
        "numberOfBytes": "288"
      },
      "t_struct(NFTLoan)2165_storage": {
        "encoding": "inplace",
        "label": "struct NFTLoans.NFTLoan",
        "members": [
          {
            "astId": 2157,
            "contract": "contracts/NFTLoans.sol:NFTLoans",
            "label": "borrowedOn",
            "offset": 0,
            "slot": "0",
            "type": "t_uint256"
          },
          {
            "astId": 2160,
            "contract": "contracts/NFTLoans.sol:NFTLoans",
            "label": "listing",
            "offset": 0,
            "slot": "1",
            "type": "t_struct(NFTListing)2140_storage"
          },
          {
            "astId": 2162,
            "contract": "contracts/NFTLoans.sol:NFTLoans",
            "label": "paid",
            "offset": 0,
            "slot": "10",
            "type": "t_uint256"
          },
          {
            "astId": 2164,
            "contract": "contracts/NFTLoans.sol:NFTLoans",
            "label": "sold",
            "offset": 0,
            "slot": "11",
            "type": "t_uint256"
          }
        ],
        "numberOfBytes": "384"
      },
      "t_uint256": {
        "encoding": "inplace",
        "label": "uint256",
        "numberOfBytes": "32"
      }
    }
  }
}