{
  "address": "0x130905BdBEA06a09D381EAAB2A8ab319F82D7a05",
  "abi": [
    {
      "anonymous": false,
      "inputs": [
        {
          "indexed": true,
          "internalType": "address",
          "name": "previousOwner",
          "type": "address"
        },
        {
          "indexed": true,
          "internalType": "address",
          "name": "newOwner",
          "type": "address"
        }
      ],
      "name": "OwnershipTransferred",
      "type": "event"
    },
    {
      "inputs": [
        {
          "internalType": "address",
          "name": "lender",
          "type": "address"
        }
      ],
      "name": "getListedNFTs",
      "outputs": [
        {
          "components": [
            {
              "internalType": "uint256",
              "name": "listedOn",
              "type": "uint256"
            },
            {
              "internalType": "address",
              "name": "tknAddress",
              "type": "address"
            },
            {
              "internalType": "uint256",
              "name": "tknId",
              "type": "uint256"
            },
            {
              "internalType": "string",
              "name": "compliance",
              "type": "string"
            },
            {
              "internalType": "uint256",
              "name": "dailyFee",
              "type": "uint256"
            },
            {
              "internalType": "enum ReturnCondition",
              "name": "returnCondition",
              "type": "uint8"
            },
            {
              "internalType": "uint256",
              "name": "expiry",
              "type": "uint256"
            },
            {
              "components": [
                {
                  "internalType": "uint256",
                  "name": "amount",
                  "type": "uint256"
                },
                {
                  "internalType": "string",
                  "name": "currency",
                  "type": "string"
                }
              ],
              "internalType": "struct NFTCollateral",
              "name": "collateral",
              "type": "tuple"
            }
          ],
          "internalType": "struct NFTListing[]",
          "name": "",
          "type": "tuple[]"
        }
      ],
      "stateMutability": "view",
      "type": "function"
    },
    {
      "inputs": [
        {
          "internalType": "uint256",
          "name": "",
          "type": "uint256"
        }
      ],
      "name": "lenders",
      "outputs": [
        {
          "internalType": "address",
          "name": "",
          "type": "address"
        }
      ],
      "stateMutability": "view",
      "type": "function"
    },
    {
      "inputs": [
        {
          "internalType": "uint256",
          "name": "listedOn",
          "type": "uint256"
        },
        {
          "internalType": "address",
          "name": "tknAddress",
          "type": "address"
        },
        {
          "internalType": "uint256",
          "name": "tknId",
          "type": "uint256"
        },
        {
          "internalType": "string",
          "name": "complianceCheck",
          "type": "string"
        },
        {
          "internalType": "uint256",
          "name": "dailyFee",
          "type": "uint256"
        },
        {
          "internalType": "enum ReturnCondition",
          "name": "returnCondition",
          "type": "uint8"
        },
        {
          "internalType": "uint256",
          "name": "expiry",
          "type": "uint256"
        },
        {
          "components": [
            {
              "internalType": "uint256",
              "name": "amount",
              "type": "uint256"
            },
            {
              "internalType": "string",
              "name": "currency",
              "type": "string"
            }
          ],
          "internalType": "struct NFTCollateral",
          "name": "collateral",
          "type": "tuple"
        }
      ],
      "name": "listNFT",
      "outputs": [],
      "stateMutability": "nonpayable",
      "type": "function"
    },
    {
      "inputs": [
        {
          "internalType": "address",
          "name": "",
          "type": "address"
        },
        {
          "internalType": "uint256",
          "name": "",
          "type": "uint256"
        }
      ],
      "name": "listedNFT",
      "outputs": [
        {
          "internalType": "uint256",
          "name": "listedOn",
          "type": "uint256"
        },
        {
          "internalType": "address",
          "name": "tknAddress",
          "type": "address"
        },
        {
          "internalType": "uint256",
          "name": "tknId",
          "type": "uint256"
        },
        {
          "internalType": "string",
          "name": "compliance",
          "type": "string"
        },
        {
          "internalType": "uint256",
          "name": "dailyFee",
          "type": "uint256"
        },
        {
          "internalType": "enum ReturnCondition",
          "name": "returnCondition",
          "type": "uint8"
        },
        {
          "internalType": "uint256",
          "name": "expiry",
          "type": "uint256"
        },
        {
          "components": [
            {
              "internalType": "uint256",
              "name": "amount",
              "type": "uint256"
            },
            {
              "internalType": "string",
              "name": "currency",
              "type": "string"
            }
          ],
          "internalType": "struct NFTCollateral",
          "name": "collateral",
          "type": "tuple"
        }
      ],
      "stateMutability": "view",
      "type": "function"
    },
    {
      "inputs": [
        {
          "internalType": "address",
          "name": "",
          "type": "address"
        }
      ],
      "name": "listedNFTCount",
      "outputs": [
        {
          "internalType": "uint256",
          "name": "",
          "type": "uint256"
        }
      ],
      "stateMutability": "view",
      "type": "function"
    },
    {
      "inputs": [
        {
          "internalType": "address",
          "name": "operator",
          "type": "address"
        },
        {
          "internalType": "address",
          "name": "from",
          "type": "address"
        },
        {
          "internalType": "uint256[]",
          "name": "ids",
          "type": "uint256[]"
        },
        {
          "internalType": "uint256[]",
          "name": "values",
          "type": "uint256[]"
        },
        {
          "internalType": "bytes",
          "name": "data",
          "type": "bytes"
        }
      ],
      "name": "onERC1155BatchReceived",
      "outputs": [
        {
          "internalType": "bytes4",
          "name": "",
          "type": "bytes4"
        }
      ],
      "stateMutability": "nonpayable",
      "type": "function"
    },
    {
      "inputs": [
        {
          "internalType": "address",
          "name": "operator",
          "type": "address"
        },
        {
          "internalType": "address",
          "name": "from",
          "type": "address"
        },
        {
          "internalType": "uint256",
          "name": "id",
          "type": "uint256"
        },
        {
          "internalType": "uint256",
          "name": "value",
          "type": "uint256"
        },
        {
          "internalType": "bytes",
          "name": "data",
          "type": "bytes"
        }
      ],
      "name": "onERC1155Received",
      "outputs": [
        {
          "internalType": "bytes4",
          "name": "",
          "type": "bytes4"
        }
      ],
      "stateMutability": "nonpayable",
      "type": "function"
    },
    {
      "inputs": [],
      "name": "owner",
      "outputs": [
        {
          "internalType": "address",
          "name": "",
          "type": "address"
        }
      ],
      "stateMutability": "view",
      "type": "function"
    },
    {
      "inputs": [],
      "name": "renounceOwnership",
      "outputs": [],
      "stateMutability": "nonpayable",
      "type": "function"
    },
    {
      "inputs": [
        {
          "internalType": "bytes4",
          "name": "interfaceId",
          "type": "bytes4"
        }
      ],
      "name": "supportsInterface",
      "outputs": [
        {
          "internalType": "bool",
          "name": "",
          "type": "bool"
        }
      ],
      "stateMutability": "view",
      "type": "function"
    },
    {
      "inputs": [
        {
          "internalType": "address",
          "name": "newOwner",
          "type": "address"
        }
      ],
      "name": "transferOwnership",
      "outputs": [],
      "stateMutability": "nonpayable",
      "type": "function"
    }
  ],
  "transactionHash": "0x3e481c163d8e3e46efa438f429e8c3714bab8c1e99c5efd2cab372514657411f",
  "args": [],
  "numDeployments": 6,
  "solcInputHash": "117804309453bf8082ebfe046bca0bc0",
  "bytecode": "0x608060405234801561001057600080fd5b5061002d61002261003260201b60201c565b61003a60201b60201c565b6100fe565b600033905090565b60008060009054906101000a900473ffffffffffffffffffffffffffffffffffffffff169050816000806101000a81548173ffffffffffffffffffffffffffffffffffffffff021916908373ffffffffffffffffffffffffffffffffffffffff1602179055508173ffffffffffffffffffffffffffffffffffffffff168173ffffffffffffffffffffffffffffffffffffffff167f8be0079c531659141344cd1fd0a4f28419497f9722a3daafe3b4186f6b6457e060405160405180910390a35050565b611e1e8061010d6000396000f3fe608060405234801561001057600080fd5b50600436106100a95760003560e01c8063929eea2111610071578063929eea21146101595780639cc938e214610189578063bc197c81146101b9578063e3a661da146101e9578063f23a6e6114610219578063f2fde38b14610249576100a9565b806301ffc9a7146100ae5780631a9b3694146100de578063715018a6146101155780638da5cb5b1461011f578063927a75811461013d575b600080fd5b6100c860048036038101906100c391906113be565b610265565b6040516100d5919061182d565b60405180910390f35b6100f860048036038101906100f3919061137e565b6102df565b60405161010c9897969594939291906118be565b60405180910390f35b61011d61048f565b005b6101276104a3565b60405161013491906117f0565b60405180910390f35b61015760048036038101906101529190611418565b6104cc565b005b610173600480360381019061016e91906113eb565b610756565b60405161018091906117f0565b60405180910390f35b6101a3600480360381019061019e91906111db565b610795565b6040516101b0919061180b565b60405180910390f35b6101d360048036038101906101ce9190611208565b610b0a565b6040516101e09190611848565b60405180910390f35b61020360048036038101906101fe91906111db565b610b3b565b60405161021091906118a3565b60405180910390f35b610233600480360381019061022e91906112e4565b610b53565b6040516102409190611848565b60405180910390f35b610263600480360381019061025e91906111db565b610b82565b005b60007f4e2312e0000000000000000000000000000000000000000000000000000000007bffffffffffffffffffffffffffffffffffffffffffffffffffffffff1916827bffffffffffffffffffffffffffffffffffffffffffffffffffffffff191614806102d857506102d782610c06565b5b9050919050565b6001602052816000526040600020602052806000526040600020600091509150508060000154908060010160009054906101000a900473ffffffffffffffffffffffffffffffffffffffff169080600201549080600301805461034190611b37565b80601f016020809104026020016040519081016040528092919081815260200182805461036d90611b37565b80156103ba5780601f1061038f576101008083540402835291602001916103ba565b820191906000526020600020905b81548152906001019060200180831161039d57829003601f168201915b5050505050908060040154908060050160009054906101000a900460ff1690806006015490806007016040518060400160405290816000820154815260200160018201805461040890611b37565b80601f016020809104026020016040519081016040528092919081815260200182805461043490611b37565b80156104815780601f1061045657610100808354040283529160200191610481565b820191906000526020600020905b81548152906001019060200180831161046457829003601f168201915b505050505081525050905088565b610497610c70565b6104a16000610cee565b565b60008060009054906101000a900473ffffffffffffffffffffffffffffffffffffffff16905090565b6104d533610db2565b6001600260003373ffffffffffffffffffffffffffffffffffffffff1673ffffffffffffffffffffffffffffffffffffffff168152602001908152602001600020546105219190611a06565b600260003373ffffffffffffffffffffffffffffffffffffffff1673ffffffffffffffffffffffffffffffffffffffff168152602001908152602001600020819055506000600260003373ffffffffffffffffffffffffffffffffffffffff1673ffffffffffffffffffffffffffffffffffffffff1681526020019081526020016000205490506040518061010001604052808a81526020018973ffffffffffffffffffffffffffffffffffffffff1681526020018881526020018781526020018681526020018560018111156105fb576105fa611c12565b5b815260200184815260200183815250600160003373ffffffffffffffffffffffffffffffffffffffff1673ffffffffffffffffffffffffffffffffffffffff16815260200190815260200160002060008381526020019081526020016000206000820151816000015560208201518160010160006101000a81548173ffffffffffffffffffffffffffffffffffffffff021916908373ffffffffffffffffffffffffffffffffffffffff1602179055506040820151816002015560608201518160030190805190602001906106d1929190610ecf565b506080820151816004015560a08201518160050160006101000a81548160ff0219169083600181111561070757610706611c12565b5b021790555060c0820151816006015560e082015181600701600082015181600001556020820151816001019080519060200190610745929190610ecf565b505050905050505050505050505050565b6004818154811061076657600080fd5b906000526020600020016000915054906101000a900473ffffffffffffffffffffffffffffffffffffffff1681565b60606000600260008473ffffffffffffffffffffffffffffffffffffffff1673ffffffffffffffffffffffffffffffffffffffff1681526020019081526020016000205467ffffffffffffffff8111156107f2576107f1611c9f565b5b60405190808252806020026020018201604052801561082b57816020015b610818610f55565b8152602001906001900390816108105790505b50905060005b600260008573ffffffffffffffffffffffffffffffffffffffff1673ffffffffffffffffffffffffffffffffffffffff16815260200190815260200160002054811015610b0057600160008573ffffffffffffffffffffffffffffffffffffffff1673ffffffffffffffffffffffffffffffffffffffff168152602001908152602001600020600082815260200190815260200160002060405180610100016040529081600082015481526020016001820160009054906101000a900473ffffffffffffffffffffffffffffffffffffffff1673ffffffffffffffffffffffffffffffffffffffff1673ffffffffffffffffffffffffffffffffffffffff1681526020016002820154815260200160038201805461094e90611b37565b80601f016020809104026020016040519081016040528092919081815260200182805461097a90611b37565b80156109c75780601f1061099c576101008083540402835291602001916109c7565b820191906000526020600020905b8154815290600101906020018083116109aa57829003601f168201915b50505050508152602001600482015481526020016005820160009054906101000a900460ff1660018111156109ff576109fe611c12565b5b6001811115610a1157610a10611c12565b5b8152602001600682015481526020016007820160405180604001604052908160008201548152602001600182018054610a4990611b37565b80601f0160208091040260200160405190810160405280929190818152602001828054610a7590611b37565b8015610ac25780601f10610a9757610100808354040283529160200191610ac2565b820191906000526020600020905b815481529060010190602001808311610aa557829003601f168201915b50505050508152505081525050828281518110610ae257610ae1611c70565b5b60200260200101819052508080610af890611b9a565b915050610831565b5080915050919050565b60007fbc197c819b3e337a6f9652dd10becd7eef83032af3b9d958d3d42f6694146621905098975050505050505050565b60026020528060005260406000206000915090505481565b60007ff23a6e612e1ff4830e658fe43f4e3cb4a5f8170bd5d9e69fb5d7a7fa9e4fdf9790509695505050505050565b610b8a610c70565b600073ffffffffffffffffffffffffffffffffffffffff168173ffffffffffffffffffffffffffffffffffffffff161415610bfa576040517f08c379a0000000000000000000000000000000000000000000000000000000008152600401610bf190611863565b60405180910390fd5b610c0381610cee565b50565b60007f01ffc9a7000000000000000000000000000000000000000000000000000000007bffffffffffffffffffffffffffffffffffffffffffffffffffffffff1916827bffffffffffffffffffffffffffffffffffffffffffffffffffffffff1916149050919050565b610c78610ec7565b73ffffffffffffffffffffffffffffffffffffffff16610c966104a3565b73ffffffffffffffffffffffffffffffffffffffff1614610cec576040517f08c379a0000000000000000000000000000000000000000000000000000000008152600401610ce390611883565b60405180910390fd5b565b60008060009054906101000a900473ffffffffffffffffffffffffffffffffffffffff169050816000806101000a81548173ffffffffffffffffffffffffffffffffffffffff021916908373ffffffffffffffffffffffffffffffffffffffff1602179055508173ffffffffffffffffffffffffffffffffffffffff168173ffffffffffffffffffffffffffffffffffffffff167f8be0079c531659141344cd1fd0a4f28419497f9722a3daafe3b4186f6b6457e060405160405180910390a35050565b600360008273ffffffffffffffffffffffffffffffffffffffff1673ffffffffffffffffffffffffffffffffffffffff16815260200190815260200160002060009054906101000a900460ff1615610e0957600080fd5b6004819080600181540180825580915050600190039060005260206000200160009091909190916101000a81548173ffffffffffffffffffffffffffffffffffffffff021916908373ffffffffffffffffffffffffffffffffffffffff1602179055506001600360008373ffffffffffffffffffffffffffffffffffffffff1673ffffffffffffffffffffffffffffffffffffffff16815260200190815260200160002060006101000a81548160ff02191690831515021790555050565b600033905090565b828054610edb90611b37565b90600052602060002090601f016020900481019282610efd5760008555610f44565b82601f10610f1657805160ff1916838001178555610f44565b82800160010185558215610f44579182015b82811115610f43578251825591602001919060010190610f28565b5b509050610f519190610fc8565b5090565b60405180610100016040528060008152602001600073ffffffffffffffffffffffffffffffffffffffff16815260200160008152602001606081526020016000815260200160006001811115610fae57610fad611c12565b5b815260200160008152602001610fc2610fe5565b81525090565b5b80821115610fe1576000816000905550600101610fc9565b5090565b604051806040016040528060008152602001606081525090565b600061101261100d8461196f565b61194a565b90508281526020810184848401111561102e5761102d611ce7565b5b611039848285611af5565b509392505050565b60008135905061105081611d93565b92915050565b60008083601f84011261106c5761106b611cd3565b5b8235905067ffffffffffffffff81111561108957611088611cce565b5b6020830191508360208202830111156110a5576110a4611ce2565b5b9250929050565b6000813590506110bb81611daa565b92915050565b60008083601f8401126110d7576110d6611cd3565b5b8235905067ffffffffffffffff8111156110f4576110f3611cce565b5b6020830191508360018202830111156111105761110f611ce2565b5b9250929050565b60008135905061112681611dc1565b92915050565b600082601f83011261114157611140611cd3565b5b8135611151848260208601610fff565b91505092915050565b6000604082840312156111705761116f611cd8565b5b61117a604061194a565b9050600061118a848285016111c6565b600083015250602082013567ffffffffffffffff8111156111ae576111ad611cdd565b5b6111ba8482850161112c565b60208301525092915050565b6000813590506111d581611dd1565b92915050565b6000602082840312156111f1576111f0611cf1565b5b60006111ff84828501611041565b91505092915050565b60008060008060008060008060a0898b03121561122857611227611cf1565b5b60006112368b828c01611041565b98505060206112478b828c01611041565b975050604089013567ffffffffffffffff81111561126857611267611cec565b5b6112748b828c01611056565b9650965050606089013567ffffffffffffffff81111561129757611296611cec565b5b6112a38b828c01611056565b9450945050608089013567ffffffffffffffff8111156112c6576112c5611cec565b5b6112d28b828c016110c1565b92509250509295985092959890939650565b60008060008060008060a0878903121561130157611300611cf1565b5b600061130f89828a01611041565b965050602061132089828a01611041565b955050604061133189828a016111c6565b945050606061134289828a016111c6565b935050608087013567ffffffffffffffff81111561136357611362611cec565b5b61136f89828a016110c1565b92509250509295509295509295565b6000806040838503121561139557611394611cf1565b5b60006113a385828601611041565b92505060206113b4858286016111c6565b9150509250929050565b6000602082840312156113d4576113d3611cf1565b5b60006113e2848285016110ac565b91505092915050565b60006020828403121561140157611400611cf1565b5b600061140f848285016111c6565b91505092915050565b600080600080600080600080610100898b03121561143957611438611cf1565b5b60006114478b828c016111c6565b98505060206114588b828c01611041565b97505060406114698b828c016111c6565b965050606089013567ffffffffffffffff81111561148a57611489611cec565b5b6114968b828c0161112c565b95505060806114a78b828c016111c6565b94505060a06114b88b828c01611117565b93505060c06114c98b828c016111c6565b92505060e089013567ffffffffffffffff8111156114ea576114e9611cec565b5b6114f68b828c0161115a565b9150509295985092959890939650565b6000611512838361171b565b905092915050565b61152381611a5c565b82525050565b61153281611a5c565b82525050565b6000611543826119b0565b61154d81856119d3565b93508360208202850161155f856119a0565b8060005b8581101561159b578484038952815161157c8582611506565b9450611587836119c6565b925060208a01995050600181019050611563565b50829750879550505050505092915050565b6115b681611a6e565b82525050565b6115c581611a7a565b82525050565b6115d481611ae3565b82525050565b6115e381611ae3565b82525050565b60006115f4826119bb565b6115fe81856119e4565b935061160e818560208601611b04565b61161781611cf6565b840191505092915050565b600061162d826119bb565b61163781856119f5565b9350611647818560208601611b04565b61165081611cf6565b840191505092915050565b60006116686026836119f5565b915061167382611d07565b604082019050919050565b600061168b6020836119f5565b915061169682611d56565b602082019050919050565b60006040830160008301516116b960008601826117d2565b50602083015184820360208601526116d182826115e9565b9150508091505092915050565b60006040830160008301516116f660008601826117d2565b506020830151848203602086015261170e82826115e9565b9150508091505092915050565b60006101008301600083015161173460008601826117d2565b506020830151611747602086018261151a565b50604083015161175a60408601826117d2565b506060830151848203606086015261177282826115e9565b915050608083015161178760808601826117d2565b5060a083015161179a60a08601826115cb565b5060c08301516117ad60c08601826117d2565b5060e083015184820360e08601526117c582826116a1565b9150508091505092915050565b6117db81611ad9565b82525050565b6117ea81611ad9565b82525050565b60006020820190506118056000830184611529565b92915050565b600060208201905081810360008301526118258184611538565b905092915050565b600060208201905061184260008301846115ad565b92915050565b600060208201905061185d60008301846115bc565b92915050565b6000602082019050818103600083015261187c8161165b565b9050919050565b6000602082019050818103600083015261189c8161167e565b9050919050565b60006020820190506118b860008301846117e1565b92915050565b6000610100820190506118d4600083018b6117e1565b6118e1602083018a611529565b6118ee60408301896117e1565b81810360608301526119008188611622565b905061190f60808301876117e1565b61191c60a08301866115da565b61192960c08301856117e1565b81810360e083015261193b81846116de565b90509998505050505050505050565b6000611954611965565b90506119608282611b69565b919050565b6000604051905090565b600067ffffffffffffffff82111561198a57611989611c9f565b5b61199382611cf6565b9050602081019050919050565b6000819050602082019050919050565b600081519050919050565b600081519050919050565b6000602082019050919050565b600082825260208201905092915050565b600082825260208201905092915050565b600082825260208201905092915050565b6000611a1182611ad9565b9150611a1c83611ad9565b9250827fffffffffffffffffffffffffffffffffffffffffffffffffffffffffffffffff03821115611a5157611a50611be3565b5b828201905092915050565b6000611a6782611ab9565b9050919050565b60008115159050919050565b60007fffffffff0000000000000000000000000000000000000000000000000000000082169050919050565b6000819050611ab482611d7f565b919050565b600073ffffffffffffffffffffffffffffffffffffffff82169050919050565b6000819050919050565b6000611aee82611aa6565b9050919050565b82818337600083830152505050565b60005b83811015611b22578082015181840152602081019050611b07565b83811115611b31576000848401525b50505050565b60006002820490506001821680611b4f57607f821691505b60208210811415611b6357611b62611c41565b5b50919050565b611b7282611cf6565b810181811067ffffffffffffffff82111715611b9157611b90611c9f565b5b80604052505050565b6000611ba582611ad9565b91507fffffffffffffffffffffffffffffffffffffffffffffffffffffffffffffffff821415611bd857611bd7611be3565b5b600182019050919050565b7f4e487b7100000000000000000000000000000000000000000000000000000000600052601160045260246000fd5b7f4e487b7100000000000000000000000000000000000000000000000000000000600052602160045260246000fd5b7f4e487b7100000000000000000000000000000000000000000000000000000000600052602260045260246000fd5b7f4e487b7100000000000000000000000000000000000000000000000000000000600052603260045260246000fd5b7f4e487b7100000000000000000000000000000000000000000000000000000000600052604160045260246000fd5b600080fd5b600080fd5b600080fd5b600080fd5b600080fd5b600080fd5b600080fd5b600080fd5b6000601f19601f8301169050919050565b7f4f776e61626c653a206e6577206f776e657220697320746865207a65726f206160008201527f6464726573730000000000000000000000000000000000000000000000000000602082015250565b7f4f776e61626c653a2063616c6c6572206973206e6f7420746865206f776e6572600082015250565b60028110611d9057611d8f611c12565b5b50565b611d9c81611a5c565b8114611da757600080fd5b50565b611db381611a7a565b8114611dbe57600080fd5b50565b60028110611dce57600080fd5b50565b611dda81611ad9565b8114611de557600080fd5b5056fea2646970667358221220e7b508664de4338bcc2e75a4579ff08a009cc9f0a0f49ca2d83e34444b1a45ed64736f6c63430008070033",
  "devdoc": {
    "kind": "dev",
    "methods": {
      "owner()": {
        "details": "Returns the address of the current owner."
      },
      "renounceOwnership()": {
        "details": "Leaves the contract without owner. It will not be possible to call `onlyOwner` functions anymore. Can only be called by the current owner. NOTE: Renouncing ownership will leave the contract without an owner, thereby removing any functionality that is only available to the owner."
      },
      "supportsInterface(bytes4)": {
        "details": "See {IERC165-supportsInterface}."
      },
      "transferOwnership(address)": {
        "details": "Transfers ownership of the contract to a new account (`newOwner`). Can only be called by the current owner."
      }
    },
    "version": 1
  },
  "userdoc": {
    "kind": "user",
    "methods": {
      "getListedNFTs(address)": {
        "notice": "Retrieve all listings"
      },
      "listNFT(uint256,address,uint256,string,uint256,uint8,uint256,(uint256,string))": {
        "notice": "Listing function"
      },
      "onERC1155BatchReceived(address,address,uint256[],uint256[],bytes)": {
        "notice": "Must be implemented as per ERC1155 spec for the NFT Pool to receive ERC1155s"
      },
      "onERC1155Received(address,address,uint256,uint256,bytes)": {
        "notice": "Must be implemented as per ERC1155 spec for the NFT Pool to receive ERC1155s"
      }
    },
    "notice": "NFTPool managges all NFTs listed by the lender",
    "version": 1
  },
  "storageLayout": {
    "storage": [
      {
        "astId": 7,
        "contract": "contracts/NFTPool.sol:NFTPool",
        "label": "_owner",
        "offset": 0,
        "slot": "0",
        "type": "t_address"
      },
      {
        "astId": 2106,
        "contract": "contracts/NFTPool.sol:NFTPool",
        "label": "listedNFT",
        "offset": 0,
        "slot": "1",
        "type": "t_mapping(t_address,t_mapping(t_uint256,t_struct(NFTListing)1921_storage))"
      },
      {
        "astId": 2110,
        "contract": "contracts/NFTPool.sol:NFTPool",
        "label": "listedNFTCount",
        "offset": 0,
        "slot": "2",
        "type": "t_mapping(t_address,t_uint256)"
      },
      {
        "astId": 2114,
        "contract": "contracts/NFTPool.sol:NFTPool",
        "label": "lenderExists",
        "offset": 0,
        "slot": "3",
        "type": "t_mapping(t_address,t_bool)"
      },
      {
        "astId": 2117,
        "contract": "contracts/NFTPool.sol:NFTPool",
        "label": "lenders",
        "offset": 0,
        "slot": "4",
        "type": "t_array(t_address)dyn_storage"
      }
    ],
    "types": {
      "t_address": {
        "encoding": "inplace",
        "label": "address",
        "numberOfBytes": "20"
      },
      "t_array(t_address)dyn_storage": {
        "base": "t_address",
        "encoding": "dynamic_array",
        "label": "address[]",
        "numberOfBytes": "32"
      },
      "t_bool": {
        "encoding": "inplace",
        "label": "bool",
        "numberOfBytes": "1"
      },
      "t_enum(ReturnCondition)1929": {
        "encoding": "inplace",
        "label": "enum ReturnCondition",
        "numberOfBytes": "1"
      },
      "t_mapping(t_address,t_bool)": {
        "encoding": "mapping",
        "key": "t_address",
        "label": "mapping(address => bool)",
        "numberOfBytes": "32",
        "value": "t_bool"
      },
      "t_mapping(t_address,t_mapping(t_uint256,t_struct(NFTListing)1921_storage))": {
        "encoding": "mapping",
        "key": "t_address",
        "label": "mapping(address => mapping(uint256 => struct NFTListing))",
        "numberOfBytes": "32",
        "value": "t_mapping(t_uint256,t_struct(NFTListing)1921_storage)"
      },
      "t_mapping(t_address,t_uint256)": {
        "encoding": "mapping",
        "key": "t_address",
        "label": "mapping(address => uint256)",
        "numberOfBytes": "32",
        "value": "t_uint256"
      },
      "t_mapping(t_uint256,t_struct(NFTListing)1921_storage)": {
        "encoding": "mapping",
        "key": "t_uint256",
        "label": "mapping(uint256 => struct NFTListing)",
        "numberOfBytes": "32",
        "value": "t_struct(NFTListing)1921_storage"
      },
      "t_string_storage": {
        "encoding": "bytes",
        "label": "string",
        "numberOfBytes": "32"
      },
      "t_struct(NFTCollateral)1926_storage": {
        "encoding": "inplace",
        "label": "struct NFTCollateral",
        "members": [
          {
            "astId": 1923,
            "contract": "contracts/NFTPool.sol:NFTPool",
            "label": "amount",
            "offset": 0,
            "slot": "0",
            "type": "t_uint256"
          },
          {
            "astId": 1925,
            "contract": "contracts/NFTPool.sol:NFTPool",
            "label": "currency",
            "offset": 0,
            "slot": "1",
            "type": "t_string_storage"
          }
        ],
        "numberOfBytes": "64"
      },
      "t_struct(NFTListing)1921_storage": {
        "encoding": "inplace",
        "label": "struct NFTListing",
        "members": [
          {
            "astId": 1904,
            "contract": "contracts/NFTPool.sol:NFTPool",
            "label": "listedOn",
            "offset": 0,
            "slot": "0",
            "type": "t_uint256"
          },
          {
            "astId": 1906,
            "contract": "contracts/NFTPool.sol:NFTPool",
            "label": "tknAddress",
            "offset": 0,
            "slot": "1",
            "type": "t_address"
          },
          {
            "astId": 1908,
            "contract": "contracts/NFTPool.sol:NFTPool",
            "label": "tknId",
            "offset": 0,
            "slot": "2",
            "type": "t_uint256"
          },
          {
            "astId": 1910,
            "contract": "contracts/NFTPool.sol:NFTPool",
            "label": "compliance",
            "offset": 0,
            "slot": "3",
            "type": "t_string_storage"
          },
          {
            "astId": 1912,
            "contract": "contracts/NFTPool.sol:NFTPool",
            "label": "dailyFee",
            "offset": 0,
            "slot": "4",
            "type": "t_uint256"
          },
          {
            "astId": 1915,
            "contract": "contracts/NFTPool.sol:NFTPool",
            "label": "returnCondition",
            "offset": 0,
            "slot": "5",
            "type": "t_enum(ReturnCondition)1929"
          },
          {
            "astId": 1917,
            "contract": "contracts/NFTPool.sol:NFTPool",
            "label": "expiry",
            "offset": 0,
            "slot": "6",
            "type": "t_uint256"
          },
          {
            "astId": 1920,
            "contract": "contracts/NFTPool.sol:NFTPool",
            "label": "collateral",
            "offset": 0,
            "slot": "7",
            "type": "t_struct(NFTCollateral)1926_storage"
          }
        ],
        "numberOfBytes": "288"
      },
      "t_uint256": {
        "encoding": "inplace",
        "label": "uint256",
        "numberOfBytes": "32"
      }
    }
  }
}